:020000040800F2
:1000000000C00020190D00085D0D00085D0D0008FE
:100010005D0D00085D0D00085D0D0008000000008A
:100020000000000000000000000000005D0D00085E
:100030005D0D0008000000005D0D00085D0D00086A
:100040005D0D00085D0D00085D0D00085D0D0008E8
:100050005D0D00085D0D00085D0D00085D0D0008D8
:100060005D0D00085D0D00085D0D00085D0D0008C8
:100070005D0D00085D0D00085D0D00085D0D0008B8
:100080005D0D00085D0D00085D0D00085D0D0008A8
:100090005D0D00085D0D00085D0D00085D0D000898
:1000A0005D0D00085D0D00085D0D00085D0D000888
:1000B0005D0D00085D0D00085D0D00085D0D000878
:1000C0005D0D00085D0D00085D0D00085D0D000868
:1000D0005D0D00085D0D00085D0D00085D0D000858
:1000E0005D0D00085D0D00085D0D00085D0D000848
:1000F0005D0D00085D0D00085D0D00085D0D000838
:100100005D0D00085D0D00085D0D00085D0D000827
:100110005D0D00085D0D00085D0D00085D0D000817
:100120005D0D00085D0D00085D0D00085D0D000807
:1001300000000000000000000000000000000000BF
:1001400000000000000000000000000000000000AF
:10015000000000000000000000000000000000009F
:10016000000000000000000000000000000000008F
:10017000000000000000000000000000000000007F
:10018000000000000000000000000000000000006F
:10019000000000000000000000000000000000005F
:1001A000000000000000000000000000000000004F
:1001B000000000000000000000000000000000003F
:1001C000000000000000000000000000000000002F
:0401D0005FF8E0F103
:1001D80070B505461C24064E25FA04F303F00F03F8
:1001E800F05C043C00F02EF9231DF5D170BD00BF72
:1001F8001775000808B500F0A7F800F0DDF800F062
:10020800BFF9394800F026F9384800F023F9384892
:1002180000F020F9374800F01DF9374800F01AF9C6
:10022800364B37485D681C6800F014F9354800F013
:1002380011F92046FFF7CCFF334800F00BF933489B
:1002480000F008F92846FFF7C3FF2F4800F002F92D
:100258002F4E3048304D00F0FDF814F0020F0CBF5F
:100268003046284600F0F6F82C4800F0F3F814F46D
:10027800003F0CBF3046284600F0ECF8284800F054
:10028800E9F814F0007F0CBF3046284600F0E2F889
:1002980000F00CF9234800F0DDF8234800F0DAF804
:1002A800224800F0D7F8182000F034F9B8B12048F7
:1002B80000F0D0F81F4800F0CDF81F4800F0CAF849
:1002C80000F064F900F05CF81C4B00BF013BFCD166
:1002D80000F064F8194B00BF013BFCD1F0E7184867
:1002E80000F0B8F81748E3E72772000854720008CE
:1002F80029720008787200089B72000800100240FA
:10030800B9720008C472000859730008D572000851
:1003180022720008E67200081C720008F5720008D4
:10032800047300081373000826730008427300085A
:100338005C730008CB730008ED730008C0D401009B
:100348007D7300088F73000813B50A4C012108203B
:1003580000F0A8FB084B204601A9019300F014FB0C
:100368000421204600F05CFB0022044B1A7002B006
:1003780010BD00BF000C014004000210B4060020AC
:1003880008B50421034800F049FB0122024B1A700A
:1003980008BD00BF000C0140B406002008B50421C8
:1003A800034800F03DFB0022024B1A7008BD00BF55
:1003B800000C0140B406002010B5012186B00420CD
:1003C80000F070FB164C01214FF4003000F076FB72
:1003D800144B204601A9019300F0D6FA0823ADF882
:1003E8000430042320460DEB03018DF8073000F09C
:1003F800CBFA00234FF4E132CDE902234FF4402237
:10040800A4F54444204602A90492ADF8143000F043
:100418006DFB0121204600F0BBFB06B010BD00BFFC
:100428000008014004000318024B1888C0F340106C
:10043800704700BF00440040014B9888C0B2704725
:1004480000440040024B1A881206FCD59880704779
:100458000044004008B5411E11F8010F00B908BD5D
:10046800FFF7F0FFF8E70000024B1A881206FCD5E8
:10047800988070470038014008B5411E11F8010FF7
:1004880000B908BDFFF7F0FFF8E70000054B064983
:100498008A8A92B2024201D001207047013BF7D10B
:1004A80018467047A08601000058004010B5012189
:1004B80086B0092000F0F6FA01214FF4800000F020
:1004C800FDFA0F4C0F4B01A90F48019300F05CFA9D
:1004D800204600F069FB0D4A0D4B2046CDE902236A
:1004E8004FF0806304934FF4804302A9ADF81430B1
:1004F80000F074FB0121204600F0DAFB06B010BDC5
:1005080000580040000C031C000C0140A0860100AC
:100518000000FFBF38B5174C054601212046A38AC5
:10052800238B00F0D1FB0120FFF7B0FF28B9114859
:10053800012100F0D5FB002014E0690000222046CC
:1005480001F0FE0100F0D8FB0B4B013BEFD0A28A73
:10055800900791B207D507480121A38A238B00F0A1
:10056800BFFB012038BD4A05EFD50449014800F01A
:10057800CBFBDCE700580040A18601000004001016
:100588000022014B1A607047B80600202DE9F0439D
:100598006C4D6D4C6D4E97B0FFF746FF10B917B014
:1005A800BDE8F083FFF748FF0D2802D00A2840F085
:1005B800BE8000222B683046E254FFF74BFF6449A7
:1005C800614800F0C9FB18BB6248FFF743FF624867
:1005D800FFF740FF6148FFF73DFF6148FFF73AFF2B
:1005E8006048FFF737FF6048FFF734FF5F48FFF7C1
:1005F80031FF5F48FFF72EFF5E48FFF72BFF5E488D
:10060800FFF728FF5D48FFF725FF00232B60C3E7AE
:1006180020465B4900F0A0FB08B95A48F0E720469D
:10062800594900F099FB60BB5848FFF713FF4FF09A
:100638001C08574FDFF85C913B6823FA08F303F076
:100648000F0319F80300A8F10408FFF7FBFE18F1DF
:10065800040FF1D15048FFF7FDFE4FF01C08DFF8FA
:100668003C917B6823FA08F303F00F0319F80300A1
:10067800A8F10408FFF7E6FE18F1040FF1D133489A
:10068800BEE72046464900F067FB60B94548FFF7DA
:10069800E1FE1820FFF73EFF434A444B00280CBFF9
:1006A80010461846ACE72046414900F055FB68B9AA
:1006B800404A4149D2F8F03702A80093D2F8EC3703
:1006C800D2F8E82700F05CFD02A899E720463B49EC
:1006D80000F042FB28B93A48042100F09FF9394854
:1006E8008EE73949184800F037FB28B93448042107
:1006F80000F096F9354883E73549134800F02CFB9C
:1007080020B93448FFF7B8FE334879E733490E4833
:1007180000F022FB48B93249324BCA6802F4E06261
:100728001343CB60BFF34F8FFEE72F4868E72A6873
:100738003E2A3FF731AF511C2960A054FFF782FED3
:100748002AE700BFB8060020BC060020597300083D
:10075800F0730008F5730008037400080B740008B0
:100768001174000818740008217400082A7400081D
:10077800347400083E74000849740008ED730008DA
:10078800A874000855740008687400086E7400089E
:1007980000100240287500087B74000828750008BE
:1007A8008A7400089074000886730008897300082A
:1007B800A774000800F0FF1FAB740008BF7400089E
:1007C800000C0140C6740008CF740008D7740008F4
:1007D800E1740008EA740008EF740008FE74000869
:1007E80000ED00E00400FA05057500080A4A08B59E
:1007F8001168034609B9094911601068084903449A
:100808008B4206D900F086FB0C2303604FF0FF30C3
:1008180008BD1360FCE700BFFC0600207408002038
:1008280000C000200138012810B505D8094B8818E8
:10083800814208D1104605E000F06CFB09230360F3
:100848004FF0FF3010BD1C882406FCD511F8014B71
:100858009C80EDE7004400404FF0FF3070470020D7
:100868007047013801288CBF002001207047002004
:10087800704708B500F04EFB582303604FF0FF3077
:1008880008BDFEE708B500F045FB162303604FF0EE
:10089800FF3008BD01207047374B82B01A6842F01C
:1008A80001021A605968354A0A405A601A6822F0EB
:1008B800847222F480321A601A6822F480221A6044
:1008C8005A6822F4FE025A604FF41F029A6000220E
:1008D800009201921A6842F480321A601A6802F48F
:1008E80000320192009A01320092019A1AB9009AD4
:1008F800B2F5A06FF2D11A6812F4003218BF0122C3
:100908000192019A012A30D11D4A116841F0100163
:100918001160116821F007011160116841F00201AE
:1009280011605A685A605A685A605A6842F480627C
:100938005A605A6822F47C125A605A6842F4E812E3
:100948005A601A6842F080721A601A689201FCD5DF
:100958005A6822F003025A605A6842F002025A604A
:100968005A6802F00C02082AFAD14FF00062054BCF
:100978009A6002B0704700BF001002400000FFF804
:100988000020024000ED00E0F0B5CB780E88DA06D2
:1009980048BF8A7803F00F0548BF15430A78C2B1EB
:1009A800002101274FF00F0C026807FA01F434EA1E
:1009B800060E0AD1282B29D144618C000CFA04FEBA
:1009C80022EA0E0205FA04F4224301310829ECD187
:1009D8000260FF2E19D900214FF0010C426801F185
:1009E80008040CFA04F434EA06070AD1282B11D1BA
:1009F80044610F278C00A74022EA070205FA04F495
:100A0800224301310829EAD14260F0BD482BD4D1F4
:100A18000461D2E7482B08BF0461EAE70161704727
:100A2800416170471A4A10B5536803F00C03082B4C
:100A38002CD153685168C3F38343CC0303F10203F9
:100A48001FD414494B4303605168134CC1F303117D
:100A5800615CCB4043605168C1F30221615C23FAB9
:100A680001F181605168C1F3C221615CCB40C36070
:100A780052680A49C2F381328A5CB3FBF2F303611C
:100A880010BD51688903DCD40549DBE7044BDAE77C
:100A98000010024000093D003D7500083975000846
:100AA80000127A00044B9A6911B102439A617047A7
:100AB80022EA0002FAE700BF00100240044BDA699C
:100AC80011B10243DA61704722EA0002FAE700BF77
:100AD80000100240044B1A6911B102431A617047B1
:100AE80022EA0002FAE700BF0010024030B50446CF
:100AF800038ACA889BB223F4405313430382838931
:100B08008A8823F4B05323F00C031B041B0C1343F3
:100B18000A8987B013434A890D4613439BB28381E0
:100B2800838A8A899BB223F440731343838201A882
:100B3800FFF778FFDDE9033214498C4208BF1346FA
:100B48001922A18953432A680D044CBF5200920010
:100B58006421B3FBF2F3B3FBF1F001FB10330201A4
:100B6800A08900044BBFDB001B01323332334BBF7B
:100B7800B3FBF1F3B3FBF1F303F0070303F00F0347
:100B880013439BB2238107B030BD00BF003801403A
:100B9800838921B19BB243F400538381704723F4C6
:100BA80000531B041B0CF8E708B50B4B01219842B6
:100BB8000AD14FF40010FFF78DFF00214FF4001009
:100BC800BDE80840FFF786BF4FF48000FFF782FFBB
:100BD80000214FF48000F3E70054004070B586B060
:100BE8000446868801A80D46FFF71CFF039B2E4983
:100BF80026F03F06B3FBF1F13604360C88B2064303
:100C0800A6802288294E22F001021204120C2280AA
:100C18002A68B24223D85200B3FBF2F293B2042BF3
:100C280038BF0423013080B22084A3832388AA8894
:100C38009BB243F0010323802388698923F48163ED
:100C480023F002031B040A431B0C13439BB22A899B
:100C58002380AB8913439BB2238106B070BD4BF64A
:100C6800FF70EE8886421BBF1920424302EB420206
:100C7800B3FBF2F30BBFB3FBF2F29BB293B243F4B4
:100C88008043C3F30B020AB943F001034FF4967291
:100C980051434FF47A72B1FBF2F1013189B243F456
:100CA80000432184C1E700BF40420F00A086010035
:100CB800038821B19BB243F001030380704723F0FE
:100CC80001031B041B0CF8E7038821B19BB243F412
:100CD80080730380704723F480731B041B0CF8E7B0
:100CE800038821B19BB243F400730380704723F457
:100CF80000731B041B0CF8E71AB141F001010182D3
:100D0800704701F0FE01FAE7C94389B28182704752
:100D1800002103E00A4B5B584350043109480A4B51
:100D280042189A42F6D3094A02E0002342F8043BEB
:100D3800074B9A42F9D3FFF7AFFDFFF75BFA70470D
:100D4800DC78000800000020B4060020B40600206B
:100D580074080020FEE7000080EA010C1CF0030F75
:100D680037D110F0030C20F0030021F0030150F8F4
:100D7800042B08BF51F8043B0ED08CF0030C6FF025
:100D88007F434FEACC0C23FA0CFC51F8043B42EAAF
:100D98000C0243EA0C0300BFA2F1013C9A4201BFD6
:100DA8002CEA020C1CF0803F50F8042B51F8043B4D
:100DB800F2D04FEA02604FEA1222012828BFB0EBB6
:100DC800036F08BF1B0AF4D003F0FF03000EC01A1C
:100DD800704710F0030F0AD010F8012B11F8013BEF
:100DE800012A28BF9A42F4D0A2EB030070474DF8BD
:100DF800045D50F8042B01F0030521F0030151F8BC
:100E0800043B022D26D04DD822F07F45B5EB132F99
:100E1800A2F1013C2CEA020C0DD11CF0803C08BF69
:100E280051F8043B0AD185EA0205B5EB036F0CD1F2
:100E380050F8042BE8E74FEA13235BE03CF07F4CC3
:100E480054D10B784FEA126554E04FEA126503F06B
:100E5800FF034FE04FEA0245A2F1013C4FEA154576
:100E68002CEA020CB5EB134F18D11CF0803C08BFDC
:100E780051F8043B07D185EA0205B5EB034F09D1C8
:100E880050F8042BE6E75FEA0C4C2FD10B884FEAA9
:100E980012452FE04FEA03434FEA12454FEA134346
:100EA80028E000BF02F0FF05B5EB136FA2F1013C8B
:100EB8002CEA020C0DD11CF0803C08BF51F8043B11
:100EC8000AD185EA0205B5EB032F0AD150F8042BA5
:100ED800E8E74FEA13630DE012F0FF0F06D051F870
:100EE800043B4FEA122523F07F4303E04FF0000054
:100EF80020BC704705F0FF0203F0FF00012828BF5F
:100F0800904204BF2D0A1B0AF4D0A2EB000020BCBB
:100F1800704700BF014B1868704700BF00000020F1
:100F280000207047024A0349034800F09BB900BFFC
:100F380028010020A53E0008080000200C4B41684D
:100F480010B59942044601D002F0A8FFA168094BE8
:100F5800994202D0204602F0A1FFE168064B99426F
:100F680004D02046BDE8104002F098BF10BD00BF75
:100F78000007002068070020D007002000207047E5
:100F88002DE9F84300250423294C2A490822C4F8EE
:100F9800381104F15C002946DFF89C90DFF89C804A
:100FA800274F284EC4E90335C4E90055C4E905555F
:100FB800A560656600F006F9234B0822294604F16E
:100FC800C4006367C4E90749C4E90987C4E91A5535
:100FD800C4E91E55E6622567C4F8CC50C4F88050B1
:100FE80000F0F0F8194B2946C4F8DC30082204F167
:100FF800680304F59670C4F88430C4E92298C4E9FB
:101008002476C4E93455C4E93855C4F8D850C4F82E
:101018003451C4F8E85000F0D5F804F1D003C4E91D
:101028003C98C4E93E76C4F8EC30BDE8F88300BFCC
:10103800000700202D0F00083D400008654000080B
:10104800A5400008C940000809000100120002007C
:10105800F8B5254B0646D3F83831002B3CD0234F42
:10106800D7E90134013B04D51DE05A1C04F168049A
:1010780019D0B4F90C50013B002DF6D11C4B0822B5
:101088002946C4E90155C4E90455E360656625604D
:10109800A56104F15C0000F095F8C4E90C55C4E9B9
:1010A80011552046F8BD3D680DB12F46D8E74FF4DD
:1010B800D671304601F000FB044680B10423056078
:1010C800294625460C304FF4D072A060636000F0CA
:1010D80079F83C602F46C3E7FFF752FFBFE70C23C0
:1010E80038603360DDE700BF0007002028010020DA
:1010F8000100FFFF436B03B17047044B044AD3F868
:1011080038314263002BF7D13AE700BF00070020CF
:10111800450F0008704700BF704700BF0020024A13
:10112800024900F09FB800BF28010020290F0008DD
:101138000020024A024900F095B800BF28010020AB
:10114800850F00080CB470B50C4600256FF00046FA
:101158009CB00A4A20AB059253F8042B02A9CDE9AA
:1011680001341B9504960796069400F09DF8029B9F
:101178001D701CB0BDE8704002B070470802FFFF48
:101188000EB470B504466FF0004600259DB00B4ABA
:1011980021AB0B49106853F8042B059102A9CDE93E
:1011A8000134049607961B95069400F07DF8029B7F
:1011B8001D701DB0BDE8704003B0704700000020EE
:1011C8000802FFFF70B5860747D0541E002A3ED09C
:1011D8000346CAB201E0013C39D303F8012B9D074D
:1011E800F9D1032C2CD9CDB205EB05250F2C1A46C5
:1011F80005EB054534D9A4F1100C2CF00F0603F1CA
:10120800100EB6444FEA1C1CC2E90055C2E902554B
:1012180010327245F8D10CF1010214F00C0F03EBF7
:10122800021204F00F0C13D0ACF1040323F00303F3
:101238000433134442F8045B9342FBD10CF00304DB
:101248002CB1C9B21C4403F8011BA342FBD170BDE9
:1012580064461346002CF4D1F9E703461446C0E768
:10126800A446E1E72DE9F8434FF0000980460F4610
:101278001646D6E90154013D10D4A389012B08D99B
:10128800B4F90E30013304D021464046B84749EA44
:101298000009013D6B1C04F16804EED13668002E8C
:1012A800E7D14846BDE8F8832DE9F04FC3B00C46B6
:1012B8000C9192460E930D9003F04EFD036818466C
:1012C800149302F047FFA3891390190603D52369E5
:1012D800002B00F0BE86002332AA19469146CDE9BC
:1012E80026332592129300220023D346CDE91023FA
:1012F800CDE915110A919BF80030002B00F04681CA
:101308005C4604E014F8013F002B00F02381252BF4
:10131800F8D1B4EB0B0540F020812378002B00F0C6
:1013280035814FF000034FF0000A8DF877304FF009
:10133800FF33CDE9083A637804F1010B98460BF1C5
:10134800010BA8F12003582B00F22D81DFE813F0E0
:1013580050022B012B014B022B012B012B012B01DE
:101368002B012B01140245022B011E0223022B0123
:1013780040025900590059005900590059005900B4
:10138800590059002B012B012B012B012B012B019B
:101398002B012B012B012B016800A6012B01A601B3
:1013A8002B012B012B012B017B022B012B01980018
:1013B8002B012B012B012B012B01A9002B012B0148
:1013C80058062B012B012B012B012B012B012B0183
:1013D8002B012B012B016D026A00A601A601A601B3
:1013E80068026A002B012B015B022B01B8029A00EC
:1013F800A702A2022B0180022B01AB002B012B01BB
:1014080079060022A8F130031BF8018B02EB820257
:1014180003EB4202A8F13003092BF5D9099290E7B2
:101428004AF0100A1AF0200F00F076810E9B07335D
:1014380023F007031846596850F8083B0A460E90EF
:101448000029C0F2918108999DF87700002908DBEE
:101458002AF08001069153EA020100F0B583DDF815
:1014680018A00A2B72F1000180F0898630338DF8BC
:10147800C7300123CDF818A00B930DF1C70553E031
:101488004AF0100A1AF0200200F05F810E9B00213A
:10149800073323F0070318465A6850F8083B0E90A4
:1014A8000FE04AF0100A1AF0200200F044810E9B67
:1014B8000121073323F0070318465A6850F8083B00
:1014C8000E900020089C8DF87700002C08DB2AF08D
:1014D8008004069453EA020400F07783DDF818A02C
:1014E8000129BED0022900F0EF8232AD03F00701D6
:1014F800DB0843EA4273D208303153EA02062C462D
:1015080005F8011DF2D11AF0010F00F0EB82302925
:1015180000F0E8823023023C05F8013C254632AB56
:101528001B1BCDF818A00B93089B0B9A9342B8BFCE
:101538001346079300230F9310B1079B01330793BA
:10154800069B13F0020A42D0079B4FF0020A0233AF
:1015580007933CE0B4EB0B0518D0279BC9E900B50D
:101568002B442793269B0133072B269305DC09F18F
:1015780008090A9B2B440A93CFE625AADDE90C103B
:1015880002F0BCFD30B90DF1C809F2E7279B002B2A
:1015980040F065870C9B9B895B0601F12A800A98BD
:1015A80043B0BDE8F08FB8F1000FEFD000238DF8FD
:1015B800773001238DF8A080079328AD0B93CDF8E1
:1015C80018A04FF0000ACDF820A0CDF83CA0069B4B
:1015D800279C13F0840305D1099A0799561A002EFF
:1015E80000F305839DF8772082B10122C9F8042011
:1015F800269A013401320DF17701072A27942692A1
:10160800C9F8001000F32C8309F10809BAF1000F9A
:101618000FD00222C9F80420269A023401321EA9EA
:10162800072A27942692C9F8001000F3278309F1A6
:101638000809802B00F0BA81089B0B9A9E1A002E8D
:1016480000F3F881069BDE0500F148810B9BC9F881
:1016580000501C44C9F80430269B27940133072BFB
:10166800269300F35A8209F10809069B5A0705D503
:10167800099B079A9D1A002D00F30E83DDE90923C3
:1016880007998A42ACBF9B185B180A93002C40F05C
:101698002F8200230DF1C80926932CE60E9B4FF0EC
:1016A800FF32073323F00703F3E802450E9325F0D2
:1016B800004319931894DDE91867B64B304639464C
:1016C800CDE9104505F068FD002840F026844FF06C
:1016D800FF3230463946AF4B05F040FD002840F058
:1016E8001C84002200232046294605F02DFD0028F1
:1016F80040F043869DF87700032200212AF08003FA
:10170800A54D0693A54BCDE90721B8F1470FD8BFE2
:101718001D460B920F910FE70E9A1AF0100F52F810
:10172800043B0E921BD11AF0400F18D043F3C0327D
:1017380011461BB284E60E9951F8043B0E911AF03B
:10174800100100F0E2830121BBE60E9951F8043B39
:101758000E911AF0100100F0D0831146B1E6DA17A5
:1017680011460029BFF66FAE5B424FF02D004FF0D7
:10177800010162EB4202A5E60E9B53F8042B002AF6
:1017880009920E9304DA099B5B4209934AF0040A12
:101798009BF80030D2E5594611F8018BB8F12A0FB1
:1017A80000F06F87A8F13003092B98BF002200F2E0
:1017B800DF8611F8018B02EB820203EB4202A8F1EB
:1017C8003003092BF5D942EAE2738B460893B8E552
:1017D8009BF800304AF0800AB0E52B238DF877306B
:1017E8009BF80030AAE59BF800304AF0010AA5E50D
:1017F8009DF877209BF80030002A7FF49FAD2022C7
:101808008DF877209AE59BF800306C2B03BF9BF886
:1018180001304AF0200A0BF1010B4AF0100A8DE55D
:101828009BF800304AF0400A88E5002201210E9B0F
:101838008DF8772053F8042B07918DF8A0200E938C
:1018480028AD0B91BBE69BF800304AF0080A75E515
:1018580000260E9C089B54F8045B8DF87760002DD9
:1018680000F03285002BC0F203841A463146284620
:1018780003F024FA002800F06A86431B0B9323EA3E
:10188800E3739DF8770008960E94CDF818A0079397
:101898000F9651E69BF800304AF0200A4EE547F6CD
:1018A80030030E9A3E48ADF8783052F8043B0221D6
:1018B8000E924FF0780800224AF0020A159000E6CE
:1018C8001AF0200F00F00C830E9B0A9A1B681A600E
:1018D800D2175A600E9B04330E930CE5B8F1650FCE
:1018E80040F32781DDE910010022002305F022FCE6
:1018F800002800F00E820123C9F80430269B294AEB
:1019080001330134072B27942693C9F8002000F3EC
:10191800B48409F108091F9B129A934203DB069BC2
:10192800DD077FF5A2AE139B149A1C44C9E9002376
:10193800269B27940133072B269300F3B88409F1DB
:101948000809129B5D1E002D7FF78FAE102D269B78
:1019580040F3D780DDE90CA81026134F05E009F104
:101968000809103D102D40F3CD8001331034072BAA
:10197800C9E90076CDE92634F1DD5146404625AA6D
:1019880002F0BCFB00287FF405AEDDE926340DF13A
:10199800C809E6E7FFFFEF7F547500085075000897
:1019A800747500089075000874760008099B079AFA
:1019B8009E1A002E7FF740AE102E269B40F3E0853E
:1019C8004A462146A946DDE90C544FF0100AB74FA4
:1019D80004E0103E102E02F1080215DD013310312B
:1019E800072BC2E9007ACDE92631F2DD29462046E7
:1019F80025AA02F083FB00287FF4CCADDDE926316F
:101A0800103E102E32AAE9DC4D460C4691460133B1
:101A18003444072BCDE92634C9F80070C9F80460AE
:101A280000F33884089B0B9A09F108099E1A002EC6
:101A38007FF708AE102E269B9C4F2CDD4A46214688
:101A4800B1464FF0100A2E46DDE90C5406E0A9F124
:101A58001009B9F1100F02F1080218DD013393489B
:101A68001031072BC2E9000ACDE92631EFDD2946FE
:101A7800204625AA02F042FB00287FF48BADDDE961
:101A88002631A9F11009B9F1100F32AAE6DC354662
:101A98000C464E46914601333444072BCDE9263493
:101AA800C9F80070C9F8046000F3F08109F1080969
:101AB800C8E501294FF00003DDF818A03FF4D6ACC3
:101AC80002291A467FF411AD159C32AD03F00F01BF
:101AD800615C1B0943EA0273120905F8011D53EA08
:101AE8000201F3D132AB5B1BCDF818A00B931BE5B9
:101AF80025AADDE90C1002F001FB00283FF4C9AD6E
:101B080048E56A4F01332C44072BC9F80070C9F81F
:101B18000450CDE926347FF7A6ADDDE90C1025AADF
:101B280002F0ECFA00287FF435AD279C0DF1C809C6
:101B38009BE5129B269E012B04F1010406F1010688
:101B480009F1080840F35E810123072ECDE92664D8
:101B5800C9F80050C9F8043000F3A581139B013679
:101B6800149A1C44072EC8E90023CDE9266400F323
:101B7800A78108F10808129B0022DDE9100103F192
:101B8800FF39002305F0D6FA002840F056810136C7
:101B980001354C44072ECDE92664C8F80050C8F832
:101BA800049000F33D8108F10808169B01361C4497
:101BB800C8F80430072E21ABCDE92664C8F80030F8
:101BC800ABDC08F1080950E50121089B002B7FF4E4
:101BD80070AF002940F011811AF001030B9300F057
:101BE8007C8130230DF1C7058DF8C7309CE4102E99
:101BF800269A2F4F26DD49462046A946DDE90C5492
:101C0800179304E0103E102E01F1080116DD102391
:101C180001321030072ACDE926200F604B60F1DD34
:101C28002946204625AA02F069FA00287FF4B2ACBA
:101C3800DDE92620103E102E32A9E8DC4D46044688
:101C48008946179B01323444072ACDE92624C9F86E
:101C58000070C9F8046000F3018309F10809C1E4C0
:101C680025AADDE90C10179302F048FA00287FF442
:101C780091AC279C179B0DF1C809C7E425AADDE99B
:101C88000C10179302F03AFA00287FF483AC279CD3
:101C9800179B0DF1C809CCE4102D269B40F36D84E9
:101CA800DDE90CA81026024F09E000BF7476000891
:101CB80064760008103D102D09F1080916DD01337E
:101CC8001034072BC9E90076CDE92634F2DD5146F8
:101CD800404625AA02F012FA00287FF45BACDDE941
:101CE8002634103D102D0DF1C809E8DC01332C44D1
:101CF800072BC9E90075CDE926347FF7BFACDDE9CC
:101D08000C1025AA02F0FAF900287FF443AC279CAE
:101D1800B4E41F99002940F36D820F9F129B9F42E4
:101D2800A8BF1F46002F0BDD269B3C440133072B21
:101D3800C9E900572794269300F3EB8309F10809B2
:101D48000F9E002FA8BFF61B002E00F3A9811F9B32
:101D5800129A934280F27881139A14991444C9E92B
:101D68000012269A27940132072A269200F3178335
:101D780009F10809129A0F99D31A561A9E42A8BF58
:101D88001E46002E0EDD269A0D4401323444072AE1
:101D9800C9F80050C9F804602794269200F3C88354
:101DA80009F10809002EB4BF1D469D1B002D7FF7C1
:101DB8005CAC102D269B7FF7A4AEDDE90CA810269D
:101DC800B44F05E009F10809103D102D7FF79AAED0
:101DD80001331034072BC9E90076CDE92634F1DD4B
:101DE8005146404625AA02F089F900287FF4D2AB73
:101DF800DDE926340DF1C809E6E7089B32AD0B93FF
:101E0800FFF792BB069BD9073FF59EAE0123072E2D
:101E1800CDE92664C9F80050C9F804307FF7C5AE8B
:101E2800DDE90C1025AA02F069F900287FF4B2ABAD
:101E3800DDE926640DF1C808B7E6129B012B7FF790
:101E4800B4AE112B40F349821025924FDDF834A02F
:101E580007E008F10808A9F11009B9F1100F40F3DB
:101E68003D8201361034072EC8E90075CDE9266495
:101E7800EFDD50460C9925AA02F040F900287FF4BE
:101E880089ABDDE926640DF1C808E4E725AADDE998
:101E98000C1002F033F900287FF47CAB279C0DF17D
:101EA800C809FFF7CFBB25AADDE90C1002F026F917
:101EB80000287FF46FABDDE926640DF1C8084DE614
:101EC80025AADDE90C1002F019F900287FF462ABAD
:101ED800DDE926640DF1C8084DE632ADFFF724BBF5
:101EE8001AF0100F40F002811AF0400F00F0FE8047
:101EF8000E9B0A9A1B681A80ECE41AF040021CBF79
:101F08000A469BB21146FFF7DCBA1AF040021CBF22
:101F18000A469BB20121FFF7D4BADDE91001024657
:101F28000B4605F039F9002840F07583089B28F026
:101F380020065A1C00F0F982472E03D1002B08BF57
:101F4800012308934AF48070DDE91012002A0690F4
:101F5800C0F23A8200231793DDE91034CDE91A3430
:101F6800B8F1650F00F0008300F33582B8F1450F32
:101F780000F0FA82089B0D9801930223009323AB8B
:101F8800049320AB03931FAB0293DDE91A2300F0FF
:101F9800E1FE1AF0010F054600F0AE80089BC41858
:101FA8000022DDE91A01002305F0C4F8002840F0FA
:101FB8003382239BA34206D230215A1C23921970E4
:101FC800239B9C42F9D81F9A0F925B1B472E1293B2
:101FD80000F09780B8F1660F40F099800F99089A41
:101FE8000AF00103002943EA020340F36982002B47
:101FF80040F02C830F9B4FF0660807930B9324E265
:10200800254B15931AF0200200F0AB800E9B073386
:1020180023F0070319465A6851F8083B0E911AF045
:10202800010F00F09B8053EA020100F097803021F5
:102038008DF879808DF878104AF0020A0221FFF7AE
:1020480040BA164B1593DDE7069AD0077FF592AE96
:1020580082E640210D9800F02FFB0C9B1860186158
:10206800002800F0C38240230C9A5361FFF733B96C
:10207800284602F06FF8034623EAE3730B900896AC
:102088009DF877000E94CDF818A00F960793FFF7E8
:1020980053BA00BF747600086075000874750008AC
:1020A800102E269B40F3FC822246DDE90C4A4FF0B5
:1020B8001008C14F05E009F10809103E102E40F341
:1020C8004D8101331032072BC9E90078CDE926325A
:1020D800F1DD2146504625AA02F010F800287FF4C9
:1020E80059AADDE926320DF1C809E6E70E9B0A9ADE
:1020F8001B681A60FFF7EEBB239B1B1A12931F9BEA
:102108000F930F9BDF1C80F28B81A8F102080F9AB6
:102118008DF88480531E002BA8BF2B221F93BCBFB1
:10212800C2F101032D22092B8DF8852000F39E8131
:1021380030338DF8873030238DF88630042316939A
:10214800129A169B012A13440B9340F335820B9B7A
:10215800139A134400220B930F9273E10221FFF7A5
:10216800B0B90E9951F8043B0E911AF010017FF4A2
:1021780056AF1AF040021CBF0A469BB24FE74FF019
:10218800CC3E0527CDE9068A8C4C32AD9C461646D6
:10219800991841F10001A4FB018A2AF0030808EB11
:1021A8009A08A1EB08015B1A62F100080EFB03F222
:1021B80004FB0822A3FB048308F0010A1A44AAFBC3
:1021C800073A5B18BCF10A0F03F130034FEA5808CD
:1021D80076F1000605F8013D48EAC2734FEA52025B
:1021E800D4D2DDE9068A32AB5B1BCDF818A00B937D
:1021F800FFF79AB90123C9F80430269B704A0133C6
:102208000134072B27942693C9F8002000F3BA80DD
:1022180009F1080900296DD1069B129A03F0010300
:1022280013433FF422AA139B14991A19C9E90013FE
:10223800269B27920133072B269300F34A8109F145
:102248000809129901338C18072BCDE92634C9F8EF
:102258000050C9F804107FF706AA5EE425AADDE954
:102268000C10179301F04AFF00287FF493A9279CCC
:10227800179B0DF1C809FFF7B5B925AADDE90C10C0
:1022880001F03CFF00287FF485A9279C0DF1C809BF
:10229800FFF741BB25AADDE90C1001F02FFF00284C
:1022A8007FF478A9279C0DF1C809FFF7C5B925AABD
:1022B800DDE90C1001F022FF00287FF46BA9279CB0
:1022C8000DF1C809FFF73DBB062B28BF06233D4D7E
:1022D8000B930E940793FFF772B9374F01364C44AE
:1022E800072ECDE92664C8F80070C8F804907FF777
:1022F8005AAC95E5139B14981A19C9E90003269B53
:1023080027920133072B269300F3E38009F108098C
:10231800002996DA4E42103180F23581DDE90CA8A9
:102328001024254F05E009F10809103E102E40F34E
:102338002B8101331032072BC9E90074CDE926320D
:10234800F1DD5146404625AA01F0D8FE00287FF469
:1023580021A9DDE926320DF1C809E6E71446013363
:102368003444072BCDE92634C9F80070C9F8046055
:1023780000F3BD8009F10809E9E42D208DF8770004
:10238800FFF7BAB925AADDE90C1001F0B7FE00285D
:102398007FF400A91F99279C0DF1C8093AE725AADF
:1023A800DDE90C1001F0AAFE00287FF4F3A81F9BBA
:1023B800279C0DF1C809DDE474760008CDCCCCCC9F
:1023C80090750008887500082D23179302F10043C3
:1023D8001A911B93C4E5B8F1660F7FF4CBAD0323C4
:1023E800089FCDE9003723AB049320AB03931FABC1
:1023F80002930D98DDE91A2300F0ACFCB8F1660FE2
:10240800054600EB07047FF4CBAD2B78302B00F0AA
:10241800F5801F9F3C44C3E51F9A23460F92D4E5DD
:10242800089A9A42FFF671AE129B0F9A934200F3F4
:10243800C9801AF0010F0F9B1CBF139A9B180B93AE
:102448004FF0670823EAE3730793179B002B5AD0D2
:102458002D238DF8773000230893FFF76EB825AA4F
:10246800DDE90C1001F04AFEFFF794B80DF1930670
:1024780032468C4F1C461046A7FB0321C90801EBC6
:102488008102A3EB42023032632C00F8012C0B4688
:1024980000F1FF32EEDC303302F8013C831EB34218
:1024A80080F0FB800DF1850213F8011BB34202F89E
:1024B800011FF9D142AB181AA0F1710316933FE638
:1024C800002B40F0D28001234FF0660807930B934E
:1024D800BBE725AADDE90C1001F010FE00287FF407
:1024E80059A8DDE926321F990DF1C80910E725AA78
:1024F800DDE90C1001F002FE00287FF44BA8279CB0
:102508000DF1C80923E4179B9DF877000893FFF79E
:1025180013B825AADDE90C1001F0F0FD00287FF4BE
:1025280039A8279C0DF1C8090AE40623089309E590
:1025380025AADDE90C1001F0E1FD00287FF42AA8A6
:102548001F9B129A279C0DF1C809D31A2AE4089BED
:102558000E9407930B9303460890CDF818A09DF8A6
:1025680077000F93FEF7E8BF089A0223571C38E755
:1025780000238B460893FEF7E4BE4B4FFFF7B6BB2C
:102588004A4FFFF744BA494F01333244072BCDE98C
:102598002632C9F80070C9F804607FF750AEDDE94B
:1025A8000C1025AA01F0AAFD00287EF4F3AFDDE99E
:1025B80026320DF1C80944E61AF001020F927FF4A1
:1025C800C6AD3FE7DDE9123213440F9A0B93002A98
:1025D8003FF736AF0F9B0B9AC3F101031A4422EA67
:1025E800E2734FF067080B9207932EE70C230D9ABE
:1025F80013604FF0FF330A93FEF7D1BF0022DDE9E5
:102608001A01002304F096FD50B31F9B1C440F933E
:10261800631B1293E2E4119B0322002BB8BF2D2009
:102628004FF000012AF08003214D0693214BACBFE7
:102638009DF877008DF87700CDE90721B8F1470FAD
:10264800D8BF1D460B920F91FEF776BF139B4FF034
:1026580066081A4453180B9323EAE3730793F4E6C6
:10266800C7F101071F973C449AE4139B03F1010843
:10267800089B43440B9323EAE3734FF066080793E0
:10268800E3E60E9A9BF801308B4652F8041B0E9233
:1026980041EAE1720892FEF751BE022316934FE514
:1026A800024F5CE6CDCCCCCC64760008747600088A
:1026B8005C750008587500082DE9F04F01F10B050D
:1026C800162D064683B024D8102900F2AD8001F0FB
:1026D80011FD102518234FF0020CC14F3B445C68D4
:1026E800A3F10802944200F0238130466368E2684F
:1026F800A16823F00303CA60234491605A68083430
:1027080042F001025A6001F0F7FC204603B0BDE830
:10271800F08F35F0070500F18780A94200F2848028
:1027280001F0E8FCB5F5FC7FC0F06C816B0A7FD046
:10273800042B00F22481AB0903F1390C03F1380EA4
:102748004FEACC00A64F384444680838A04207D165
:102758000DE0002AE16880F2E580884207D00C4647
:10276800636823F003035A1B0F2AF2DDF446DFF8EF
:1027780074823C69444500F0C280636823F0030911
:10278800A9EB05030F2B00F34281002BC7E904884E
:1027980080F22C81B9F5007FD7F804E080F0CF8073
:1027A80001234FEAD9014FEA5919194403FA09F3E9
:1027B80057F831204EEA030E07EBC103083BA2602D
:1027C800E360C7F804E047F83140D46001204FEADD
:1027D800AC039840704532D810EA0E0F07D12CF0A0
:1027E800030C400010EA0E0F0CF1040CF9D007EBB3
:1027F800CC0AD646E146DEF80C300BE059681C4698
:1028080021F003014A1B0F2ADB6800F3C580002A68
:1028180080F2D9809E45F1D109F1010919F0030F21
:102828000EF1080EE7D11CE10C23336000246CE79D
:102838004FF400704FF0400C4FF03F0E82E7BC6839
:10284800636823F00309A94503D3A9EB05030F2BFC
:1028580058DCDFF894B104EB0903DBF8002008200A
:10286800103202EB0508009301F0D6FBD7F80814E4
:102878000246013105D008F1FF388044414201EA9F
:10288800080841463046009201F092FCB0F1FF3F43
:102898008246009A00F0D68004EB0903834200F2D6
:1028A800CF80DBF8041002F1FF3C41440846CBF826
:1028B800041040F0F3801AEA0C0F40F0EF80D7F8CC
:1028C80008A0C84448F00100CAF804005446DBF8E0
:1028D8002C208A42DBF8302038BFCBF82C108A42F3
:1028E80038BFCBF8301020F00308A845A8EB050343
:1028F80001D30F2B06DC304601F0FEFB96E7D7F834
:1029080004E063E7621943F0010345F001056560DF
:102918003046BA600834536001F0EEFB204603B03D
:10292800BDE8F08FA2683046D16023448A60E5E6AE
:10293800DC68A3427FF4D9AE0CF1020C17E7B9F5B5
:10294800206F4FEA592274D3142A00F2078102F14A
:102958005C03DB005B32F918FB580839994203D154
:10296800E4E09B68994204D05A6822F003024A4581
:10297800F7D8D968C4E902318C60DC6026E7142BEB
:1029880063D9542B00F2F3802B0B03F16F0C03F186
:102998006E0E4FEACC00D5E6D4F808C0304666196A
:1029A80045F001056560CCF80C30C3F808C042F06A
:1029B8000103C7E90466C6E902887360625001F042
:1029C8009BFB0834A1E621444A68304642F00102E4
:1029D8004A6054F8082FD3609A6001F08DFB94E6A2
:1029E80038010020400100203C080020A144D9F80B
:1029F8000430304643F00103C9F8043001F07CFB91
:102A0800083482E64FEAD50C05F1080365E6621939
:102A180043F0010145F0010565603046C7E904222D
:102A2800C2E90288516044F8093001F065FB0834B6
:102A38006BE64FEA991202F13903DB0038328AE774
:102A4800BC4224D0BC6860684DE703F15C0C03F11C
:102A58005B0E4FEACC0075E65AF80839534540F04A
:102A6800D6801CF0030F0CF1FF3CF5D17B6823EAFC
:102A780000037B60400098423FF6E1AE18B9DEE6FD
:102A8800400009F104091842FAD0CC46AFE6DBF859
:102A9800040002F1FF3C4044CBF80400D7F80814C6
:102AA80001316FD004EB0903AAEB03031844CBF8F8
:102AB80004001AF00703009341D0C3F108018A44C7
:102AC800D0440A4408EA0C01521A02EA0C013046C2
:102AD800019101F06DFB421C71D00199A0EB0A0035
:102AE80000EB0108DBF8042048F001001144BC4267
:102AF800C7F808A0CBF80410CAF804003FF4E6AE03
:102B0800B9F10F0F41D905236268A9F10C0020F033
:102B1800070002F00102024362600F2804EB000282
:102B2800C2E9013353D8DAF80400CFE60120921045
:102B380000FA02F24EEA020EC7F804E01AE70AEBBE
:102B4800080101EA0C01521A02EA0C01304601910F
:102B580001F02EFB431CC0D10099C3E7542A18D8B2
:102B68004FEA193202F16F03DB006E32F3E6B3F578
:102B7800AA7F18D8EB0B03F1780C03F1770E4FEA14
:102B8800CC00DFE5C7F808A493E70123CAF80430AE
:102B9800B1E6B2F5AA7F24D84FEAD93202F1780318
:102BA800DB007732D7E640F25452934224D8AB0C7C
:102BB80003F17D0C03F17C0E4FEACC00C2E5009BCB
:102BC8000021A3F108029044A8EB0A088AE704F15F
:102BD8000801304601F066F8DBF80410D7F808A0C1
:102BE800A1E740F254539A420DD84FEA994202F1B4
:102BF8007D03DB007C32AEE64FF47E704FF07F0C35
:102C08004FF07E0E9EE54FF47E737E22A3E67B682E
:102C180030E700BF000000002DE9F04F03690C69A0
:102C280085B0A342C0F291808146013C01F11405B0
:102C380009F1140855F8243058F824C001339C458C
:102C4800BCFBF3F64FEA840005EB840708EB84022B
:102C580043D34FF0000CAA46CDE90105C6466346AA
:102C680065469346CDF80C805AF8040BDEF8002030
:102C78001FFA80FC06FB0C554FEA10484FEA154C2A
:102C880006FB08CCADB290B2401B18441FFA8CF377
:102C9800C3EB204303EB124380B240EA034057459D
:102CA8004EF8040B4FEA1C454FEA2343DCD2DDE91A
:102CB8000105DDF80C8058F8003073B9ABF1040257
:102CC800904504D307E0904504F1FF3403D252F84D
:102CD8000439002BF7D0C9F81040484601F08CFDA4
:102CE80000282EDB4146002255F8040BD1F800C01D
:102CF8001FFA80FE1FFA8CF3A3EB0E031344020C99
:102D0800C2EB234202EB1C429BB243EA0243AF42AE
:102D180041F8043B4FEA2242E6D258F8242008EB57
:102D280084036AB9043B434504D807E0984504F195
:102D3800FF3403D253F80429002AF7D0C9F8104009
:102D48000136304605B0BDE8F08F002005B0BDE87B
:102D5800F08F00BF2DE9F04F16461F46816B9DB0DE
:102D6800CDE90667299D039049B10123C26B04464A
:102D780093408B604A6001F08BFA0023A363B7F19C
:102D88000009B4BF012300232B60794BBCBF29F095
:102D98000049CDF81C9033EA090300F0AD80DDE965
:102DA80006341846214600220023CDE9040104F028
:102DB800C1F9804668B10123289A13602A9B13B190
:102DC8006C4B2A9A13606C4B089308981DB0BDE8A9
:102DD800F08F1AAB01931BAB00930398DDE9042332
:102DE80001F068FE5FEA1955824640F09B80DDE9F4
:102DF8001A85454405F23243202B40F38D83C3F1F5
:102E0800400309FA03F905F2124326FA03F349EAE3
:102E1800030003F0ADFE0123013D1193A1F1F87108
:102E28000022564B03F066FD4BA3D3E9002303F0C1
:102E380019FF4BA3D3E9002303F05EFD064628469D
:102E48000F4603F0A5FE48A3D3E9002303F00AFFC9
:102E580002460B463046394603F04EFD06460F46FD
:102E680004F0B0F9002204460990002330463946A0
:102E780004F06AF9002840F02583099CA8EB0508AE
:102E880008F1FF33162C0A9300F29181DDE9040161
:102E98003B4B03EBC403D3E9002304F055F90028A6
:102EA80074D0631E09930023109308F1FF33002B9D
:102EB800C0F2848100230B93099B002B6CDA099BD9
:102EC8000B9A0E93D21A5B420F9300230993269B09
:102ED8000B92092B6AD8052B40F323830025043B6A
:102EE8002693269B023B032B00F24186DFE813F072
:102EF80072046F0466044A0442F20F73289AC9F3F5
:102F0800130959EA060913601CD12A9B002B00F00B
:102F18004E861C4B089308332A9A089813601DB0F4
:102F2800BDE8F08FDDE90412C2F31303084643F04D
:102F38007F51CDF84480A5F2FF35DDF8688041F473
:102F480040116DE72A9B002B40F0F7830E4B089346
:102F58003BE700BFAFF3008061436F63A787D23FB1
:102F6800B3C8608B288AC63FFB799F501344D33F70
:102F78000000F07F91750008907500080000F83F88
:102F88009876000894750008A0750008B8F1000F3D
:102F980040F3A88410900B90DDE9092313440A93A9
:102FA80000230F93269B0E92092B94D90023012509
:102FB8004FF0FF3B269327930C950021039BCDF8F8
:102FC80060B0D963039801F03DF90890002800F03B
:102FD800D785039B089ABBF10E0F9A6300F21981FB
:102FE800002D00F016810E99002940F34984B44B56
:102FF80001F00F0203EBC203C8054FEA2115D3E91C
:10300800006740F10A84DDE90401AE4B4FF0030983
:10301800D3E9082303F050FFCDE9120105F00F05AD
:103028008DB1DFF8A082E90709D5D8E90023304639
:10303800394603F017FE06460F4609F101096D10DF
:1030480008F10808EFD1DDE912013B46324603F0EA
:1030580033FF07468846109B43B100223846414655
:10306800994B04F071F8002840F01085484603F0A9
:103078008FFD3A46434603F0F5FD0022934B03F0DB
:103088003BFC0446A1F15075BBF1000F00F0AA808B
:103098000E9BCDF848B019934146384604F092F893
:1030A8001299874BCDE9144503EBC10353E9023468
:1030B8000546CDE9163403F06BFD0B460246414642
:1030C800384603F017FC089F0C9B30357E1CECB289
:1030D800804689463546002B00F06E84DDE91623CC
:1030E80000207B4903F0E8FEDDE9142303F002FC2D
:1030F8003C7042464B4604460D4604F043F800280F
:1031080040F0BB84CDF850A0CDF858B00027AB46AE
:10311800A246129D2AE00137AF4280F2018550464F
:10312800594600226B4B03F09DFD0022694B8246F5
:103138008B464046494603F095FD8946804604F093
:1031480041F8044603F024FD02460B464046494632
:1031580003F0D0FB303452465B4606F8014B8046FC
:10316800894603F0F1FF002840F0D78442464B46D9
:103178000020554903F0BEFB52465B4603F0E4FFCE
:103188000028C8D0199B3746DDF850A0089A03F1EB
:10319800010802E0974200F09F843E4617F8013D7F
:1031A800392BF7D00133DBB245463B7079E1012377
:1031B800109308F1FF33002BBFF67CAEC8F1010372
:1031C8000B9300230A9377E6484603F0E1FC3A465E
:1031D800434603F047FD00223C4B03F08DFB0446B9
:1031E800A1F15075384600223B4B414603F082FB63
:1031F80022462B4606460F4603F0C4FF002840F03F
:103208007A8430463946224605F1004303F09CFF94
:1032180028BB1B9B002BC0F291800E9A0E2A00F34C
:103228008D80274B0E9A03EBC203D3E90034CDE916
:103238000634279B002B19DABBF1000F16DC0ED1E0
:10324800DDE906010022244B03F00CFD02460B4683
:10325800DDE9040103F082FF002800F04C8400231C
:103268001F46089E0493279BDD432DE2089B5D1CA7
:10327800DDE90678DDE904013A46434603F01CFE21
:1032880003F0A0FF064603F083FC3A46434603F0EA
:10329800E9FC02460B46DDE9040103F02BFB089A22
:1032A80006F13003BBF1010F2F46137000F02583A0
:1032B8000125CDF810A0A846DDE9069A2CE000BF4C
:1032C80098760008887700080000F03F00001C404E
:1032D8000000E03F00002440000014404A465346E6
:1032E8002046294603F0E8FD03F06CFF064603F08C
:1032F8004FFC4A46534603F0B5FC08F101080B465B
:1033080002462946204603F0F5FA06F13003D8456F
:1033180007F8013B00F0EF820022834B03F0A2FC88
:103328000022002304460D4603F004FF0028D5D0F0
:103338000E9D3E46DDF810A00135B2E00C9A002A39
:1033480040F0D68000231F460F9E0B9D0C9365B15D
:103358000A9900290B4608DDA942A8BF2B460B9AFB
:10336800ED1AD21ACB1A0B920A930F9B53B10C9BEE
:1033780013B1002E40F0FC8251460F9A039801F0D9
:103388006BF982460121039801F086F8099B0490A5
:10339800002B40F0BD81269B012B40F3D3810120F7
:1033A8000A9A104410F01F0000F09980C0F1200321
:1033B800042B40F3E2810B9BC0F11C000344024440
:1033C8000B9305440A920B9B002B05DD51461A46C8
:1033D800039801F09BF982460A9B002B05DDDDE985
:1033E80003011A4601F092F90490109B002B40F05B
:1033F8007481BBF1000F40F34B810C9B002B40F014
:10340800A2800E9D01350126DDE90394DDF82080B8
:1034180007E0514600230A22484600F043FF82464F
:10342800013621465046FFF7F7FBB34500F130005F
:1034380008F8010BEDDCBBF1000FCCBF5E4601269E
:1034480081460024089B03EB060B51460122039892
:1034580001F05CF90499824601F0CEF9002840F3A6
:10346800F081089A02E0934500F005821BF8013CC0
:103478005E46392B0BF1FF3BF5D001338BF800305A
:10348800DDE90381404600F003FF57B12CB1BC428F
:1034980003D02146404600F0FBFE3946039800F071
:1034A800F7FE5146039800F0F3FE00233370289B83
:1034B8001D602A9B002B3FF488AC08981E601DB045
:1034C800BDE8F08F204603F063FB32463B4603F02D
:1034D80031FE00287FF4D1AC631E0993CDE41C2390
:1034E8000B9A1D441A440B920A9A1A440A926AE7E4
:1034F800269A012A40F3B0810F9B0BF1FF36B342A5
:10350800C0F26B81BBF1000FA3EB060680F2F782D5
:103518000B9BA3EB0B056EE1C3F1200306FA03F046
:1035280077E40125DDE400BF00002440394600238C
:103538000A22039800F0B6FE189B0746002B40F3BA
:1035480007839B460E96002D05DD39462A460398CB
:1035580001F0DCF80746099B002B40F0ED81B846E6
:10356800089B1E46013B03EB0B04069B03F001037B
:10357800CDE90A43039C04995046FFF74DFB3946B1
:103588008346504601F038F90499054642462046DC
:1035980001F052F9C36801460BF13009ABBB099041
:1035A800504601F029F909990990204600F070FE6B
:1035B800099A002A54D1269B1BB90B9B002B00F0BB
:1035C800B582002D3FDBB3460A9B0BF8019B9E4258
:1035D80000F0C981514600230A22204600F062FE0D
:1035E8004745824639464FF000034FF00A0220460D
:1035F80030D000F057FE414600230A2207462046F5
:1036080000F050FE5E468046B5E7039800F040FEA5
:10361800002D06DB069B03F00102269B1D432A436F
:1036280029D151460122039801F070F80499824685
:1036380001F0E2F8002840F3F880B9F1390F00F002
:1036480050820BF131090E9D3C460135474606F87C
:10365800019B15E700F026FE5E46074680468AE78E
:10366800002DC0F29B82269B1D430B9B1D4300F03F
:103678009582002AA7DDB9F1390F00F032820E9D3C
:1036880009F101033C460135474606F8013BF7E6D8
:10369800269B022B7FF7B1AEBBF1000F40F02981CA
:1036A8005B4605220499039800F0FCFD014604904E
:1036B800504601F0A1F8002840F31B8131230E9DEC
:1036C800089E013506F8013BDDE9030100F0E0FD45
:1036D8000135002F7FF4E1AEE3E65046049901F08E
:1036E8008BF80028BFF685AE514600230A220398BE
:1036F8000E9C00F0D7FD0C9B8246661E002B7FF4C3
:1037080015AF189B002B40F318829B460E9D7AE656
:1037180001461A46039800F09FFF269B0490012B50
:103728006FDD00230993049A136902EB8303186978
:1037380000F062FEC0F1200032E69B4B0893033391
:10374800FFF7EABB069B002B7FF429AEDDE90612E2
:10375800C2F31303002B7FF422AE944B134033B112
:103768000B9B01330B930A9B01330A930123099A9C
:103778000993002A3FF413AED5E73FF424AEC0F115
:103788003C03ADE601230C93279B0E9A134403F1E7
:10379800010B5E46012EB8BF01261893172E40F381
:1037A8000182012204235B0003F11400B042114698
:1037B80002F10102F7D9039BD96303E401230C93B7
:1037C800279B002B38DD9B461E461893E6E700230F
:1037D8000C93D9E700230C93F2E70F9B0F96F31A8B
:1037E8000026099A1A440A9B09925B440A930B9B88
:1037F8001D465B440B930121039800F04DFE0746DC
:10380800A5E5069B002B8CD1DDE90601C1F3130366
:103818000A46002BA1D0099085E7DDE904344FF072
:103828000209CDE91234FFF7FBBB7FF40CAF19F0A6
:10383800010F7FF402AF06E701239B462793FFF7AA
:10384800BCBB03D119F0010F7FF40BAE5E461BF829
:10385800013D302BFAD013E6119A002A00F09F8020
:1038680003F233430A9A0F9E1A440A920B9A15469A
:103878001A440B92BFE73123089A01351370FFE50C
:1038880000F0FE80DDE904010E9A494B554205F02F
:103898000F0203EBC203D3E9002303F0E3F92D1170
:1038A800CDE9120100F05D8100234FF002090746BF
:1038B8008846404EEA070AD5D6E9002338464146ED
:1038C80003F0D0F901230746884609F101096D1074
:1038D80006F10806EED1002B7FF4BDABDDE91278C6
:1038E800FFF7B9BBC8F101030A900B931090FFF7DB
:1038F80053BB089EB7E4DDF810A002460B4602F061
:10390800FBFF03460C46DDE906010E9D1A46CDE98C
:10391800043401352346A84603F016FC40B9DDE916
:103928000423DDE9060103F005FC18B1F30701D50E
:10393800089A32E43E46B4E50398796800F082FCC0
:103948000546002800F023813B6907F10C0102338A
:103958009A000C3000F0EAFA01222946039800F098
:10396800D5FE8046FCE50E9D3C46013547466CE594
:10397800039C39463246204600F06EFE0746524602
:103988003946204600F0B6FD51468246204600F0F2
:103998007FFC0F9B9B1B0F933FF4F4ACECE41A9B4A
:1039A800C3F136035EE700BFA07500080000F07F92
:1039B8009876000888770008DDE91623DDE9140108
:1039C80003F050F9089BCDE90C011C70129B012BE8
:1039D80000F0C580129F089B11961F4400227C4B63
:1039E8004046494603F03EF90D46044603F0EAFB1B
:1039F800814603F0CDF802460B462046294602F0E0
:103A080079FF09F1300906F8019BBE4280468946D4
:103A1800E4D1119D0022DDE90C016E4B02F06CFF30
:103A280002460B464046494603F0ACFB00286ED1DF
:103A3800DDE90C230020674902F05CFF02460B46D3
:103A48004046494603F080FB80B91B9B002BFFF6DC
:103A580079AC0E9B0E2B3FF775AC5F4B0E9A03EBC0
:103A6800C203D3E90034CDE9063401E417F8013C78
:103A78003E46302B07F1FF37F8D0199D013510E588
:103A88004FF00209DDE90478FFF7E5BABBF1000F52
:103A98003FF49AAB189C002C7FF7BBAB0E9B3846C3
:103AA800013B414600221993494B03F0DBF80246DB
:103AB8008846174609F1010003F06AF83A4643467A
:103AC80003F0D0F80022454B02F016FF1294A1F142
:103AD80050750446FFF7E0BA312308F10108FFF7F3
:103AE80063BBB34639230E9D3C46089A47460135C9
:103AF8000BF8013BBAE400231F460493DEE50A9B5A
:103B08005B440A930B9B1D465B440B9373E6199B1E
:103B1800089A03F10108FFF740BBDDF850A0ACE7B5
:103B2800DDF850A0DDF858B0FFF773BBB9F1390FD5
:103B3800D7D0002D3FF785AD85E5269B022B03DC0A
:103B48000E9DDDF860B05EE4DDF860B00E96A3E58A
:103B5800269B022BF8DCDDF860B00E96F3E43746BE
:103B680058E74FF00209DDE91278FFF774BA00252B
:103B7800039B29461846DD6300F064FB0890D0B922
:103B8800002240F2AF11164B164800F035FB0246F2
:103B980040F2EF21124B134800F02EFB002A3FF7AA
:103BA80040AD50E50021039BD963FFF70BBA0E4BDC
:103BB8000893FFF70AB9039B089A4FF0FF3B9A63F3
:103BC80001232795CDF860B00C93FFF722BB00BF07
:103BD800000024400000E03F9876000800001C40E8
:103BE800A4750008B8750008947500082DE9F84315
:103BF80006460820894600F00FFA0546DFF8988047
:103C0800304600F077FAD8F808305F6827F00307E5
:103C1800A7F11104A4EB09042C44B4FBF5F4013C0E
:103C280005FB04F4A54208DC0021304600F0C0FA88
:103C3800D8F808303B44984205D0304600F05CFA8A
:103C48000020BDE8F8833046614200F0B1FA013047
:103C58000FD0124AD8F808303F1B47F001075F60C1
:103C6800136830461B1B136000F046FA0120BDE8BC
:103C7800F8830021304600F09BFAD8F80820831A10
:103C88000F2BDADD43F001035360054B03491B6832
:103C9800C01A0860D1E700BF3801002040080020A2
:103CA8004005002000297CD0F8B50C46064600F0F7
:103CB80021FA54F8043C764FA4F1080523F00101D9
:103CC8006818D7F808C04268844522F0030200F05B
:103CD8008380DB07426000EB020C33D454F8084CB5
:103CE800DCF804302D1B2144AC6807F1080C64454E
:103CF80003F0010364D0D5F80CE0C4F80CE0CEF86A
:103D08000840002B00F0818041F001036B600160E6
:103D1800B1F5007F22D20122CB0849098A4079688F
:103D280001330A437A6057F8331007EBC302083AA5
:103D3800C5E9021247F83350CD603046BDE8F84077
:103D480000F0DAB9DCF80430DB072BD541F00103C9
:103D5800B1F5007F44F8043C0160DCD3B1F5206F75
:103D68004FEA512353D28B0903F1390003F138028A
:103D7800C300F818FB580838984203D161E09B68E3
:103D8800984204D05A6822F003028A42F7D8D868C9
:103D9800C5E9023085603046DD60BDE8F84000F0D6
:103DA800ABB97047114407F1080C836863453FD0ED
:103DB800C268DA60936041F001036B606950A7E75D
:103DC800002B5FD10A44D0E90213CB60996042F01E
:103DD80001036B60AA50B0E70A44D90707D454F826
:103DE800083CED1A1A44D5E90213CB60996042F0F9
:103DF80001036B60274BBD601B6893429DD8264B1F
:103E080030461968FFF7F2FE97E71144CDE7142B07
:103E180008D9542B1DD80B0B03F16F0003F16E0268
:103E2800C300A6E703F15C0003F15B02C300A0E74F
:103E380041F00103C7E90455C5E902CC6B6069503C
:103E48007BE70121921001FA02F279680A437A604D
:103E58009EE7B3F5AA7F06D8CB0B03F1780003F1F0
:103E68007702C30085E740F25452934206D88B0C80
:103E780003F17D0003F17C02C3007AE74FF47E73FF
:103E88007E2276E741F001036B60016055E700BFD1
:103E980038010020440500203C08002070B539B1E5
:103EA80006460C4608B1436B83B3B4F90C3013B91A
:103EB8000025284670BD2146304600F075FFE36AAC
:103EC800054633B13046E16998470028B8BF4FF03E
:103ED800FF35A3891B061CD4216B41B104F14003B3
:103EE800994202D03046FFF7DDFE00232363616C60
:103EF80021B13046FFF7D6FE00236364FDF70AF9C7
:103F08000023A381FDF708F9284670BDFDF7F2F8F4
:103F1800CBE730462169FFF7C5FEDDE7024B0146D6
:103F28001868FFF7BBBF00BF00000020844641EAC5
:103F3800000313F0030349D1403A23D30B6803600D
:103F48004B6843608B688360CB68C3600B6903610F
:103F58004B6943618B698361CB69C3610B6A0362F7
:103F68004B6A43628B6A8362CB6AC3620B6B0363DF
:103F78004B6B43638B6B8363CB6BC36340304031C4
:103F8800403ADBD230320BD30B6803604B68436096
:103F98008B688360CB68C36010301031103AF3D25D
:103FA8000C3205D351F8043B40F8043B043AF9D2EB
:103FB800043208D0D2071CBF11F8013B00F8013BBE
:103FC80001D30B8803806046704700BF082A13D3CB
:103FD8008B07B1D010F00303AED0C3F10403D21A9B
:103FE800DB071CBF11F8013B00F8013BA4D331F8F3
:103FF800023B20F8023B9FE7043AD9D3013A11F873
:10400800013B00F8013BF9D20B7803704B78437001
:104018008B78837060467047082802D14FF480502F
:10402800704708B5FCF776FF162203464FF0FF30BD
:104038001A6008BD10B50C46B1F90E1001F020F851
:10404800002803DB236D0344236510BDA38923F4F3
:104058008053A38110BD00BF002070472DE9F041B7
:104068000C46B1F90C101F46CB05054616460BD475
:1040780021F48051A1813B4632462846B4F90E10FE
:10408800BDE8F04100F020B8B4F90E100223002278
:1040980001F046F8B4F90C10EAE700BF10B50C4679
:1040A800B1F90E1001F03CF8B4F90C30421C0EBF07
:1040B80023F4805343F480532065A38110BD00BFCF
:1040C800B1F90E1000F086B838B50C46114600223A
:1040D8008446074D20462A601A466446FCF7A2FB30
:1040E800431C00D038BD2B68002BFBD0236038BDA3
:1040F80070080020704700BF704700BF2DE9F041ED
:10410800154692682C68FAB107468846083402E0DA
:1041180013460834C3B16B685E1E002B6E6013DD56
:1041280054F8046C002EF3D033464146384654F810
:10413800082C00F045FF431C07D0AA680834921BDE
:104148001346AA60002BE6D100200023C5E90133FD
:10415800BDE8F08120F0030110F00300C0F1000079
:1041680051F8043B00F1040C4FEACC0C6FF000024C
:104178001CBF22FA0CF213434FF0010C4CEA0C2C32
:104188004CEA0C4CA3EB0C0222EA030212EACC1212
:1041980004BF51F8043B0430F4D0C2F1000102EA34
:1041A8000102B2FA82F2C2F11F0200EBD20070479C
:1041B800002238B5064D044608462A60FCF716FB6F
:1041C800431C00D038BD2B68002BFBD0236038BDC2
:1041D80070080020002238B5064D044608462A60BB
:1041E800FCF73AFB431C00D038BD2B68002BFBD0F2
:1041F800236038BD70080020144600B51A460A4BE3
:104208000D461B6885B0DE6803464CB1074901912D
:10421800304607490294009500F056FF00F092FEE0
:1042280004490C46F3E700BF00000020E4750008CD
:10423800F4750008F075000808B513460022FFF76A
:10424800DBFF00BF38B5436C05460C464BB153F84D
:10425800240080B1026843F824200023C0E9033316
:1042680038BD2122042100F075FE03466864002849
:10427800EDD1002038BD0121284601FA04F56A1D58
:10428800920000F067FE0028F3D0C0E90145E4E79A
:1042980031B1436C4A6853F82200086043F8221091
:1042A800704700BF2DE9F0414FF0000E0E461C4646
:1042B8000D69074601F1140001680EF1010E8BB279
:1042C80002FB0343090C4FEA134C02FB01CC9BB2DF
:1042D80003EB0C43754540F8043B4FEA1C44EBDC08
:1042E8003CB1B368AB4207DD06EB850301355C6181
:1042F80035613046BDE8F081716838460131FFF715
:10430800A1FF8046A8B1326906F10C010232920081
:104318000C30FFF70BFE7B6C726853F8221031608B
:1043280043F82260464606EB850301355C6135613A
:10433800DFE70246BA21024B0248FFF75DFF00BFE4
:10434800A4750008247600082DE9F8431E460C469B
:1043580026490833174681FB032C092E4FEAE373DD
:104368000546C3EB6C0339DD4FF0010C00214FEA21
:104378004C0C634501F10101F9DC2846FFF762FFA7
:10438800014668B3089B092F43614FF0010303619D
:1043980012DC09270A34BE420BDDF61B264414F84A
:1043A800013B0A222846303BFFF77CFFB442014616
:1043B800F5D10846BDE8F88304F10909C8463C442C
:1043C80018F8013B0A222846303BFFF76BFFA0454F
:1043D8000146F5D1A7F108044C44DCE70021CCE7FD
:1043E8000246D321024B0348FFF706FF398EE33814
:1043F800A475000824760008B0F5803F03463ABF4C
:10440800102083400020B3F1807F3CBF1B0208309E
:10441800B3F1805F3CBF1B010430B3F1804F03D37D
:10442800002B06DB013070479B0003D45B0003D4EC
:1044380020207047023070470330704703680146F8
:1044480013F0070209D0DA0721D498074BBF5B089D
:104458009B08012002200B60704798B2A0B110465B
:10446800DAB20AB908301B0A1A0704BF1B0904305C
:104478009A0704BF9B080230DA0703D45B0800F1EF
:10448800010006D00B6070471020C340E8E7002009
:1044980070472020704700BF38B5436C04460D466E
:1044A8004BB15868B0B102685A60002201234561D7
:1044B800C0E9032338BD2122042100F04BFD034647
:1044C80060640028EDD1002240F24511074B0848EE
:1044D800FFF792FE1C220121204600F03BFD002838
:1044E800F1D001220223C0E90123DEE7A475000808
:1044F800247600082DE9F04FD1F8108015690E4692
:10450800A845924685B005DB2A46534645468A4665
:1045180090461E46DAF80830DAF8041005EB08046D
:10452800A342B8BF0131FFF78DFE002800F0898053
:1045380000F1140707EB840E774505D23B460022AD
:1045480043F8042B9E45FBD8143606EB88080AF17D
:104558001409464509EB850566D2A5EB0A03153B08
:1045680023F003030AF1150A043355452CBF9B4673
:104578004FF0040BCDF808E08246AE46039405E000
:10458800090C2AD1B04507F104074AD956F8041B8B
:104598008DB2002DF4D0CC463C46002301965CF841
:1045A800040B216886B28AB205FB0622000C090CAE
:1045B80005FB00111A4401EB124192B242EA014292
:1045C800E64544F8042B4FEA1143E8D8019E47F822
:1045D8000B3056F8041C090CD4D000223B6848461E
:1045E8001D463C46944602889BB201FB02C202EB80
:1045F800154243EA024344F8043B50F8043B25685B
:104608004FEA134CABB201FB0C33704503EB12437A
:104618004FEA134CE7D3B04547F80B3007F10407CE
:10462800B4D8DDE902E45046002C02DC05E0013C88
:1046380003D05EF8043D002BF9D0046105B0BDE855
:10464800F08F02464FF4B171014B0248FFF7D4FDD9
:10465800A47500082476000812F003032DE9F04140
:10466800144607462CD10E46A4101CD03D6C85B3C9
:10467800E3074FF0000806D4641014D02868A8B1E6
:104688000546E307F8D52A4631463846FFF732FF94
:1046980036B17B6C716853F82120326043F8216091
:1046A80064100646EAD13046BDE8F0812A4629461C
:1046B8003846FFF71FFF28600546C0F80080E0E78E
:1046C8000F4A013B52F823200023FFF7EBFD064673
:1046D800CAE701213846FFF7B5FD054640B140F26B
:1046E80071230122C0E90423002338640360BFE773
:1046F800024640F24511034B0348FFF77DFD00BF1A
:1047080088760008A4750008247600082DE9F0478B
:104718000C462769A36807EB62177D1C9D429046EB
:10472800064649684FEA621904DD5B009D4201F1C3
:104738000101FADC3046FFF785FD002851D0B9F1B8
:10474800000F00F114010FDD0B464FF0000C09F1CA
:1047580005024FEA820E00EB820243F804CB934233
:10476800FBD1AEF114031944226904F1140318F0C3
:104778001F0803EB820C2CD08E464FF0000AC8F1BC
:1047880020091A6802FA08F242EA0A024EF8042BD3
:1047980053F8042B9C4522FA09FAF2D8ACEB04032F
:1047A800153B23F00303043304F11502944538BF85
:1047B800042341F803A0BAF1000F00D13D46736C01
:1047C8006268056153F82210216043F82240BDE871
:1047D800F087043953F8042B9C4541F8042FF9D885
:1047E800ECE702464FF4EF71014B0248FFF704FD76
:1047F800A47500082476000884460B690069C01A6D
:1048080015D10CF1140C14310CEB830210B401EB2C
:10481800830301E0944508D252F8044D53F8041D6F
:104828008C42F7D004D24FF0FF3010BC704770476D
:10483800012010BC704700BF2DE9F04F14460A69EB
:1048480023698846D21A002A83B040F0888001F193
:10485800140604F1140202EB830206EB830301E061
:104868009E427FD253F8045D52F8041D8D42F7D062
:1048780076D323460025444698466168FFF7E2FC54
:10488800002800F0898000F1140949464FF0000C17
:104898002769D8F8106004F1140B08F1140EC560EC
:1048A80004F110020EEB86060BEB870ACDF804B074
:1048B8005EF8044B52F8045F1FFA84FBABB2A3EB1B
:1048C8000B03240C6344C4EB154404EB23449BB250
:1048D80043EA0443764541F8043B4FEA244CE7D8C1
:1048E80008F115018E4234BF00210121A6EB08060C
:1048F800153EB608002906F101024FEA820208BFF8
:104908000422DDF804B00BEB0204A2454A4434D972
:1049180015462146E04651F8046BB3B263444FEAAA
:10492800164E0EEB234E06EB08039BB243EA0E43EA
:104938008A454FEA2E4C45F8043BEBD80AF1FF3A7A
:10494800AAEB040A2AF0030A524423B952F8043D98
:10495800013F002BFAD0076103B0BDE8F08F88DA79
:1049680001258AE70021FFF76DFC70B101220023C1
:10497800C0E9042303B0BDE8F08F00294FEA86069A
:1049880008BF002609EB0602DFE7024640F237219E
:10499800054B0648FFF730FC024640F24521024B22
:1049A8000248FFF729FC00BFA47500082476000818
:1049B800124B0A460B40A3F15073002B03DD002273
:1049C8001946104670475B42B3F1A07F4FEA235166
:1049D80006DA4FF4002300220B41194610467047AF
:1049E80014391E29D4BF4FF0004201224FF00003B2
:1049F800D8BFCA4010461946704700BF0000F07F74
:104A0800F8B5046900F1140202EB840454F8045C5C
:104A1800261F2846FFF7F0FC0346C0F120000A2BAA
:104A2800086030DDB242A3F10B071AD254F8083CF3
:104A38001FB3C7F1200C23FA0CF1BD4045EA01066B
:104A4800A4F1080546F07F51AA4203FA07F341F49E
:104A5800401116D254F80C2C22FA0CF213431846C3
:104A6800F8BD0B2B08D0002305FA07F747F07F5154
:104A7800184641F44011F8BD002345F07F5141F438
:104A880040111846F8BDB2422CBF002254F8082C39
:104A9800C3F10B0703F1150325FA07FC38BFFA40E9
:104AA80005FA03F34CF07F511343184641F44011C3
:104AB800F8BD00BFF0B5012183B016461F46FFF7C9
:104AC800C1FB0546002847D0C7F30A54C7F31303B0
:104AD8000CB143F48013002E019314D101A8FFF701
:104AE800ADFC0122019B20306B612A6114B3089B45
:104AF800A4F2334404441C60099BC0F135001860DB
:104B0800284603B0F0BD68460096FFF797FC019B66
:104B180000B30099C0F1200203FA02F2C3400193E6
:104B28000A43002B6A610CBF01220222AB612A6191
:104B3800002CDCD105EB8201A0F232430869089908
:104B48000B60FFF759FC099BC0EB42101860284620
:104B580003B0F0BD009AE4E7024640F20F31024B81
:104B68000248FFF749FB00BFA47500082476000837
:104B78002DE9F04383B0884669468146FFF740FF38
:104B880004460D46404601A9FFF73AFFD9F8103010
:104B9800D8F81020A3EB020CDDE900329B1A03EBD6
:104BA8004C13002B0BDD05EB03573D4602460B4625
:104BB8002046294602F080F903B0BDE8F083C3EB34
:104BC800033301EB03594946F0E700BF172870B5D6
:104BD80006460ADD002000240749084D22462B46D8
:104BE80002F040F8013EF9D170BD054B03EBC0035C
:104BF800D3E9040170BD00BF0000F03F000024406D
:104C08008876000801F1FF3C116902F114034FEAAC
:104C18006C1C03EB81010CF1010C8B4200EB8C0C3A
:104C280016D210B5A0F1040E53F8044B99424EF871
:104C3800044FF9D88B1A153B23F0030304331844A7
:104C4800844504D9002340F8043B8445FBD810BDB3
:104C5800844505D9002340F8043B8445FBD87047B8
:104C6800704700BF03694A11934200F1140009DA42
:104C780000EB830302E053F8042DA2B98342FAD86B
:104C88000020704700EB8203F8DD11F01F01F5D01A
:104C980010B450F8224024FA01F28A40944208D015
:104CA800012010BC70470120704753F8042D002ADA
:104CB800F6D18342F9D8002010BC70475FFA81FC16
:104CC800810744D00346511E22B909E09A0709D04A
:104CD800013905D31846027801336245F6D1704789
:104CE80000207047184603290CD80029F8D003463D
:104CF800014401E08B42F3D0184613F8012B6245BA
:104D0800F8D1704710B50CEB0C24024604EB0444B0
:104D180002E00439032915D9104652F8043B6340D0
:104D2800A3F1013E2EEA030313F0803FF1D00346BE
:104D3800014401E08B4208D0184613F8012B624564
:104D4800F8D110BD10460029F1D1002010BD114640
:104D5800C9E700BFF03070470048704738060020A8
:104D6800004870473806002010B4034CD4F8E440DB
:104D7800A44610BC604700BF4805002082B049B176
:104D88005AB16BB113780B601278101E18BF01204E
:104D980002B0704701A9002AF3D1104602B070474B
:104DA8006FF00100F4E700BFB1F90C20F8B5160761
:104DB8000C46074648D4496842F400630029A38199
:104DC8005FDDA56A002D3DD0002112F480523E68B7
:104DD8003960E16961D101233846A847451C02467C
:104DE8006AD0B4F90C30A56AE169580705D563683B
:104DF800D21A236B0BB1E36BD21A00233846A847AB
:104E0800411C4CD13968B4F90C301D293FD82F4AC0
:104E1800CA40D2073BD5002262602269DD042260C5
:104E280023F40062A28101D5002943D0216B3E60A2
:104E380041B104F14003994202D03846FEF732FFEF
:104E4800002323630020F8BD0E69002EFAD09207D4
:104E580018BF00230D6808BF4B690E60AD1B8B603F
:104E68000CE02B463246D4F824C03846E169E047C6
:104E7800B0F1000CA5EB0C05664406DD002DF0DC56
:104E8800E0E7E16B00299CDCDCE7B4F90C3043F087
:104E980040034FF0FF30A381F8BD226DA5E7002243
:104EA800B4F90C3062602269226023F40062DB04EA
:104EB800A281BBD52065B9E73B68002B91D01D2B9B
:104EC80001D0162BE1D13E60BCE700BF01004020B5
:104ED80010B5044682B008B1436B53B1B1F90C0068
:104EE80008B902B010BD204602B0BDE81040FFF777
:104EF8005BBF0191FCF7FEF80199EFE7A0B138B567
:104F08000C4B04461D680DB16B6B4BB1B4F90C002A
:104F180000B938BD21462846BDE83840FFF744BFF0
:104F28002846FCF7E7F8F1E7034A04490448FCF788
:104F380099B900BF0000002028010020D94E0008C0
:104F480008000020062008B500F044FB0120FBF70C
:104F580098FC00BF38B5A1FB021454BBFDF7ACFBAD
:104F6800054650B350F8042C22F00302043A242AD0
:104F780010D8132A13D91B2AC0E9004416D9242AA9
:104F8800C0E902440ABFC0E9044400F1100200F17C
:104F9800180205E02146FCF715F9284638BD0246F7
:104FA80000232846C2E90033936038BD00F10802A7
:104FB800F6E7FBF7AFFF0C2303600025284638BD52
:104FC8002DE9F0471D468F680C46AF4216460B6820
:104FD80036D8B1F90CC01CF4906F0ED13D46184676
:104FE80031462A4600F0B0FB0020A368DF1B236887
:104FF800A7602B442360BDE8F0874A69096902EB82
:1050080042025F1A02EBD2726B1C52103B4493426D
:1050180092BF914699461A461CF4806F804611D07B
:105028001146FDF749FB824600B33A462169FEF76F
:105038007DFFA38923F4906343F08003A38105E0F7
:105048002F46CCE700F082F8824658B10AEB0703F6
:10505800A9EB0707A760C4F810A02F46C4F814905E
:105068002360BCE740462169FEF71CFE0C22A38999
:105078004FF0FF3043F04003C8F80020A381BAE79F
:1050880038B50C46114600228446074D20462A6052
:105098001A466446FBF7EDFB431C00D038BD2B686D
:1050A800002BFBD0236038BD700800200CB400B57D
:1050B80083B004AB53F8042B019300F0C3FB03B097
:1050C8005DF804EB02B070470EB400B5074A82B031
:1050D80003AB0146106853F8042B019300F0B2FBB0
:1050E80002B05DF804EB03B0704700BF0000002079
:1050F80010B4034CD4F8E040A44610BC604700BF8D
:1051080048050020034649B1FF2A02D801200A7049
:1051180070478A224FF0FF301A6070470846704780
:1051280038B50C46114600228446074D20462A60B1
:105138001A466446FBF79BFB431C00D038BD2B681E
:10514800002BFBD0236038BD700800202DE9F84FF4
:105158001646002900F096800C46804606F10B059D
:10516800FEF7C8FF54F8041C162DA4F1080921F015
:10517800030758D81025AE4258D8AF4260DABF4B63
:1051880009EB070C9A68DCF80400624500F090808F
:1051980020F0010363445B68DB0768D420F0030058
:1051A8003B189D4247DDCB0712D454F8083CA9EBC5
:1051B800030BDBF8043023F00302104400EB070A6A
:1051C800554540F3F68007EB020A554540F3CC807D
:1051D80031464046FDF770FA0646002800F0218166
:1051E80054F8043CA0F1080223F001034B44934215
:1051F80000F0B4803A1F242A00F2D780132A00F264
:10520800A280034622461168196051685960926865
:105218009A6021464046FEF745FD4046FEF76CFF82
:105228003046BDE8F88F35F00705A4D50C23C8F83B
:105238000030002618E01F46DCE90223D3609A609C
:10524800D9F804307A1B0F2A03F0010309EB070091
:105258001DD83B43C9F80430436843F00103436059
:105268004046FEF749FF26463046BDE8F88FC90795
:10527800AED454F8083CA9EB030BDBF8043023F058
:105288000302A0E71146BDE8F84FFDF715BA2B4316
:1052980009EB050142F00102C9F804304A6043688D
:1052A800083143F0010343604046FEF7FBFCD7E7B3
:1052B80020F00300C21905F1100C624580F29280BB
:1052C800CA0785D454F8082CA9EB020BDBF8042094
:1052D80022F00302104400EB070AD4453FF773AFEE
:1052E8005E46DBF80C1056F8080F3A1F242AC160F6
:1052F800886000F2B080132A40F2AB8021681B2A34
:10530800CBF808106168CBF80C1000F2AA800834BA
:105318000BF110022168116061685160A168916009
:10532800AAEB05020BEB050142F0010299604A6005
:10533800DBF80430404603F001032B43CBF804307C
:10534800FEF7DAFE90E723681B2A03606368436070
:105358003DD804F1080200F1080354E750F8043C72
:1053680023F003031F446BE75E463A1FDBF80C305B
:1053780056F8081F242ACB60996023D8132A1FD90E
:1053880023681B2ACBF808306368CBF80C303CD86C
:1053980008340BF1100322681A6062685A60A26828
:1053A8009A6034465746D9464AE7214600F0CCF978
:1053B8002FE7DCE902135E46CB603A1F9960D5E718
:1053C8003346E8E72146304600F0BEF9E9E7A3682E
:1053D800242A8360E368C36027D004F1100200F137
:1053E800100310E7521B09EB050142F00102996016
:1053F8004A6054F8043C404603F001032B4344F848
:10540800043CFEF779FE26462EE7A368242ACBF84B
:105418001030E368CBF8143010D010340BF11803B7
:10542800B9E74046FEF768FE03E7236904F118026E
:1054380003616369436100F11803E4E623691834E2
:10544800CBF8183054F8043CCBF81C300BF120038F
:10545800A1E732465EE72146304600F075F9074B72
:105468005EE7A168242ACBF81010E168CBF8141085
:1054780006D010340BF118024CE700BF38010020A9
:1054880022691834CBF8182054F8042CCBF81C20C7
:105498000BF120023EE700BF38B5D0F818410CB137
:1054A800002038BD80210546FDF706F90246C5F8FB
:1054B800180130B1031F7C3243F8044F9342FBD1EB
:1054C800EEE74FF0FF3038BD30B51F29054683B0F1
:1054D80009D8D0F818310C4653B153F8240043F8D2
:1054E800242003B030BD162303604FF0FF30F8E7E7
:1054F80080210192FDF7E0F8019A0346C5F81801EA
:105508000028F2D0011F00F17C05002041F8040FAB
:10551800A942FBD1E1E700BF1F2938B505461FD8CE
:10552800D0F818210C466AB152F8213053B1012B3A
:1055380006D0591C10D00021204642F82410984764
:10554800002038BD284600F0FDF8224601462846CE
:10555800BDE8384000F0E2B8162301202B6038BDC2
:1055680016234FF0FF302B6038BD00BF1F292DD800
:1055780038B5D0F818310C460546A3B153F82420A5
:1055880003EB84034AB1511C0BD0012A07D0002534
:1055980020461D609047284638BD012038BD0320AD
:1055A80038BD022038BD8021FDF786F80346C5F8CE
:1055B800180140B100201A1F03F17C0142F8040FC2
:1055C8008A42FBD1DAE74FF0FF3038BD4FF0FF30A9
:1055D800704700BF38B5144B1F281D681ED8D5F872
:1055E8001821044662B152F820304BB1012B05D086
:1055F800591C0FD0002142F820109847002038BDD0
:10560800284600F09FF8224601462846BDE8384063
:1056180000F084B8162301202B6038BD16234FF004
:10562800FF302B6038BD00BF00000020124B1F2840
:1056380070B51E6809D8D6F8183104460D464BB126
:1056480053F8240043F8245070BD162333604FF0FC
:10565800FF3070BD80213046FDF72EF80346C6F8AE
:1056680018010028F3D00021021F7C3042F8041FE3
:105678008242FBD1E4E700BF0000002038B50C4BA4
:105688001D68D5F818410CB1002038BD8021284686
:10569800FDF712F8C5F8180138B1031F00F17C02B4
:1056A80043F8044F9342FBD1EEE74FF0FF3038BD8B
:1056B8000000002038B5184B1F281D6828D804465C
:1056C800D5F81801A0B150F8242000EB84034AB1A2
:1056D800511C0BD0012A07D0002520461D60904799
:1056E800284638BD012038BD032038BD022038BD0A
:1056F80080212846FCF7E0FFC5F8180140B10021D9
:10570800031F00F17C0243F8041F9342FBD1DAE740
:105718004FF0FF3038BD00BF0000002070B50026F4
:10572800074D0446084611462E60FBF7ABF8431CAC
:1057380000D070BD2B68002BFBD0236070BD00BF6C
:1057480070080020FBF7A6B888420ED98B18834250
:105758000BD900EB020C002A6DD0624613F801CD7C
:10576800994202F801CDF9D170470F2A0FD80346A4
:1057780002F1FF3C002A5ED00CF1010C013B8C4485
:1057880011F8012B614503F8012FF9D1704740EA60
:1057980001039B0750D1A2F1100370B501F1200C51
:1057A80023F00F0501F1100E00F11004AC441B09A1
:1057B8005EF8105C0EF1100E44F8105C5EF81C5C8C
:1057C800103444F81C5C5EF8185C44F8185C5EF809
:1057D800145CE64544F8145CEAD1013312F00C0F6E
:1057E80001EB031102F00F0400EB031328D08E46DF
:1057F800043C24F003064FEA940C1E441C1F5EF878
:10580800045B44F8045FB442F9D10CF1010402F0DE
:10581800030203EB840301EB840102F1FF3C4AB16C
:105828000CF1010C013B8C4411F8012B614503F884
:10583800012FF9D170BD7047034602F1FF3C9BE789
:105848002246EAE72DE9F04FADB01C469146CDE976
:105858000730029118B1436B002B00F001850299C3
:10586800B1F90C204B6E950405D442F4005223F490
:1058780000538A814B66980400F12285029BB3F994
:105888000C20110740F1D3801B69002B00F0CF805A
:1058980002F01A020A2A00F0D98000230DF1700ADA
:1058A800D346CDE91033CDF83CA00993059399F878
:1058B8000030002B00F0F4804C4604E014F8013F5F
:1058C800002B00F0D280252BF8D1B4EB090540F06D
:1058D800CF802378002B00F0E3804FF0FF33039351
:1058E8004FF000038DF8373000239846617804F1B3
:1058F8000109049309F10109A1F12003582B00F2D1
:10590800DC80DFE813F0AF01DA00DA00AA01DA0080
:10591800DA00DA00DA00DA00DA007401A401DA0049
:105928007E018301DA009F0159005900590059008E
:1059380059005900590059005900DA00DA00DA0014
:10594800DA00DA00DA00DA00DA00DA00DA006800F1
:10595800DA00DA00DA00DA00DA00DA00DA00DA006F
:10596800DA00DA001702DA00DA00DA00DA00DA0020
:10597800E801DA00DA001C04DA00DA00DA00DA00FA
:10598800DA00DA00DA00DA00DA00DA00DA016A00AE
:10599800DA00DA00DA00D5016A00DA00DA00C801B4
:1059A800DA00BA011A047D027802DA005702DA0036
:1059B8001804DA00DA0041040022A1F1300319F8D2
:1059C800011B02EB820203EB4202A1F13003092B17
:1059D800F5D9049290E748F0100818F0200F00F06D
:1059E800D580079B073323F007031846596850F8FA
:1059F800083B0A4607900029C0F2DC8003999DF80D
:105A080037000029C0F2E18053EA020128F080083B
:105A180040F0DB80039B002B40F0598454460193EF
:105A2800002800F0BC81019A01320192B7E1029D81
:105A38000898294600F0AEFC002840F04184B5F9EA
:105A48000C2002F01A020A2A7FF427AF029BB3F94E
:105A58000E30002BFFF621AF23464A4602990898DC
:105A68002DB0BDE8F04F00F05FBCB4EB090517D0CE
:105A7800119BCBE900952B441193109B0133072B05
:105A8800109305DC0BF1080B059B2B44059320E7CD
:105A9800029908980FAA00F0DFFC28B9D346F3E76B
:105AA800119B002B40F0FE83029B9B895B0600F153
:105AB800078405982DB0BDE8F08F0029F0D00023A9
:105AC8008DF8373001238DF84810019312AC00226D
